{"abi":[{"type":"constructor","inputs":[{"name":"_policyName","type":"string","internalType":"string"},{"name":"_policyDescription","type":"string","internalType":"string"},{"name":"_businessType","type":"string","internalType":"string"},{"name":"_location","type":"string","internalType":"string"},{"name":"_employeeCount","type":"string","internalType":"string"},{"name":"_maxAmount","type":"uint256","internalType":"uint256"},{"name":"_category","type":"string","internalType":"string"}],"stateMutability":"nonpayable"},{"type":"function","name":"claimCount","inputs":[],"outputs":[{"name":"","type":"uint256","internalType":"uint256"}],"stateMutability":"view"},{"type":"function","name":"claims","inputs":[{"name":"","type":"uint256","internalType":"uint256"}],"outputs":[{"name":"employee","type":"address","internalType":"address"},{"name":"receiptHash","type":"bytes32","internalType":"bytes32"},{"name":"amount","type":"uint256","internalType":"uint256"},{"name":"category","type":"string","internalType":"string"},{"name":"description","type":"string","internalType":"string"},{"name":"timestamp","type":"uint256","internalType":"uint256"},{"name":"status","type":"uint8","internalType":"enum ClearedContract.ClaimStatus"},{"name":"rejectionReason","type":"string","internalType":"string"},{"name":"receiptCid","type":"string","internalType":"string"}],"stateMutability":"view"},{"type":"function","name":"createdAt","inputs":[],"outputs":[{"name":"","type":"uint256","internalType":"uint256"}],"stateMutability":"view"},{"type":"function","name":"employeeClaims","inputs":[{"name":"","type":"address","internalType":"address"},{"name":"","type":"uint256","internalType":"uint256"}],"outputs":[{"name":"","type":"uint256","internalType":"uint256"}],"stateMutability":"view"},{"type":"function","name":"getClaim","inputs":[{"name":"_claimId","type":"uint256","internalType":"uint256"}],"outputs":[{"name":"","type":"tuple","internalType":"struct ClearedContract.ReimbursementClaim","components":[{"name":"employee","type":"address","internalType":"address"},{"name":"receiptHash","type":"bytes32","internalType":"bytes32"},{"name":"amount","type":"uint256","internalType":"uint256"},{"name":"category","type":"string","internalType":"string"},{"name":"description","type":"string","internalType":"string"},{"name":"timestamp","type":"uint256","internalType":"uint256"},{"name":"status","type":"uint8","internalType":"enum ClearedContract.ClaimStatus"},{"name":"rejectionReason","type":"string","internalType":"string"},{"name":"receiptCid","type":"string","internalType":"string"}]}],"stateMutability":"view"},{"type":"function","name":"getEmployeeClaims","inputs":[{"name":"_employee","type":"address","internalType":"address"}],"outputs":[{"name":"","type":"uint256[]","internalType":"uint256[]"}],"stateMutability":"view"},{"type":"function","name":"getOwner","inputs":[],"outputs":[{"name":"","type":"address","internalType":"address"}],"stateMutability":"view"},{"type":"function","name":"getPolicyMetadata","inputs":[],"outputs":[{"name":"","type":"string","internalType":"string"},{"name":"","type":"string","internalType":"string"},{"name":"","type":"tuple","internalType":"struct ClearedContract.PolicyParams","components":[{"name":"businessType","type":"string","internalType":"string"},{"name":"location","type":"string","internalType":"string"},{"name":"employeeCount","type":"string","internalType":"string"},{"name":"maxAmount","type":"uint256","internalType":"uint256"},{"name":"category","type":"string","internalType":"string"},{"name":"isActive","type":"bool","internalType":"bool"}]},{"name":"","type":"uint256","internalType":"uint256"},{"name":"","type":"uint256","internalType":"uint256"},{"name":"","type":"address","internalType":"address"}],"stateMutability":"view"},{"type":"function","name":"policyDescription","inputs":[],"outputs":[{"name":"","type":"string","internalType":"string"}],"stateMutability":"view"},{"type":"function","name":"policyName","inputs":[],"outputs":[{"name":"","type":"string","internalType":"string"}],"stateMutability":"view"},{"type":"function","name":"policyParams","inputs":[],"outputs":[{"name":"businessType","type":"string","internalType":"string"},{"name":"location","type":"string","internalType":"string"},{"name":"employeeCount","type":"string","internalType":"string"},{"name":"maxAmount","type":"uint256","internalType":"uint256"},{"name":"category","type":"string","internalType":"string"},{"name":"isActive","type":"bool","internalType":"bool"}],"stateMutability":"view"},{"type":"function","name":"processClaim","inputs":[{"name":"_claimId","type":"uint256","internalType":"uint256"},{"name":"_status","type":"uint8","internalType":"enum ClearedContract.ClaimStatus"},{"name":"_reason","type":"string","internalType":"string"}],"outputs":[],"stateMutability":"nonpayable"},{"type":"function","name":"submitClaim","inputs":[{"name":"_amount","type":"uint256","internalType":"uint256"},{"name":"_description","type":"string","internalType":"string"},{"name":"_receiptHash","type":"bytes32","internalType":"bytes32"},{"name":"_receiptCid","type":"string","internalType":"string"}],"outputs":[],"stateMutability":"nonpayable"},{"type":"function","name":"updatePolicyStatus","inputs":[{"name":"_isActive","type":"bool","internalType":"bool"}],"outputs":[],"stateMutability":"nonpayable"},{"type":"function","name":"validateReceipt","inputs":[{"name":"_receiptHash","type":"bytes32","internalType":"bytes32"}],"outputs":[{"name":"exists","type":"bool","internalType":"bool"},{"name":"claimId","type":"uint256","internalType":"uint256"}],"stateMutability":"view"},{"type":"event","name":"ClaimProcessed","inputs":[{"name":"claimId","type":"uint256","indexed":false,"internalType":"uint256"},{"name":"status","type":"uint8","indexed":false,"internalType":"enum ClearedContract.ClaimStatus"},{"name":"reason","type":"string","indexed":false,"internalType":"string"}],"anonymous":false},{"type":"event","name":"ClaimSubmitted","inputs":[{"name":"claimId","type":"uint256","indexed":false,"internalType":"uint256"},{"name":"employee","type":"address","indexed":false,"internalType":"address"},{"name":"amount","type":"uint256","indexed":false,"internalType":"uint256"},{"name":"category","type":"string","indexed":false,"internalType":"string"}],"anonymous":false},{"type":"event","name":"PolicyCreated","inputs":[{"name":"owner","type":"address","indexed":false,"internalType":"address"},{"name":"policyName","type":"string","indexed":false,"internalType":"string"},{"name":"maxAmount","type":"uint256","indexed":false,"internalType":"uint256"},{"name":"category","type":"string","indexed":false,"internalType":"string"}],"anonymous":false}],"bytecode":{"object":"0x6080604052426009555f600a5534801562000018575f80fd5b5060405162002297380380620022978339810160408190526200003b9162000232565b5f80546001600160a01b0319163317905560016200005a8882620003c3565b506002620000698782620003c3565b506040805160c081018252868152602081018690529081018490526060810183905260808101829052600160a0820152600380620000a88882620003c3565b5060208201516001820190620000bf9082620003c3565b5060408201516002820190620000d69082620003c3565b506060820151600382015560808201516004820190620000f79082620003c3565b5060a091909101516005909101805460ff19169115159190911790555f546040517f54b8a3315640a4494379c0418c5aa2b37a5f4030871fbb6a64cdaaec43e467529162000157916001600160a01b03909116908a9086908690620004bc565b60405180910390a15050505050505062000506565b634e487b7160e01b5f52604160045260245ffd5b5f5b838110156200019c57818101518382015260200162000182565b50505f910152565b5f82601f830112620001b4575f80fd5b81516001600160401b0380821115620001d157620001d16200016c565b604051601f8301601f19908116603f01168101908282118183101715620001fc57620001fc6200016c565b8160405283815286602085880101111562000215575f80fd5b6200022884602083016020890162000180565b9695505050505050565b5f805f805f805f60e0888a03121562000249575f80fd5b87516001600160401b038082111562000260575f80fd5b6200026e8b838c01620001a4565b985060208a015191508082111562000284575f80fd5b620002928b838c01620001a4565b975060408a0151915080821115620002a8575f80fd5b620002b68b838c01620001a4565b965060608a0151915080821115620002cc575f80fd5b620002da8b838c01620001a4565b955060808a0151915080821115620002f0575f80fd5b620002fe8b838c01620001a4565b945060a08a0151935060c08a01519150808211156200031b575f80fd5b506200032a8a828b01620001a4565b91505092959891949750929550565b600181811c908216806200034e57607f821691505b6020821081036200036d57634e487b7160e01b5f52602260045260245ffd5b50919050565b601f821115620003be57805f5260205f20601f840160051c810160208510156200039a5750805b601f840160051c820191505b81811015620003bb575f8155600101620003a6565b50505b505050565b81516001600160401b03811115620003df57620003df6200016c565b620003f781620003f0845462000339565b8462000373565b602080601f8311600181146200042d575f8415620004155750858301515b5f19600386901b1c1916600185901b17855562000487565b5f85815260208120601f198616915b828110156200045d578886015182559484019460019091019084016200043c565b50858210156200047b57878501515f19600388901b60f8161c191681555b505060018460011b0185555b505050505050565b5f8151808452620004a881602086016020860162000180565b601f01601f19169290920160200192915050565b6001600160a01b03851681526080602082018190525f90620004e1908301866200048f565b8460408401528281036060840152620004fb81856200048f565b979650505050505050565b611d8380620005145f395ff3fe608060405234801561000f575f80fd5b50600436106100f0575f3560e01c806378ce010211610093578063a888c2cd11610063578063a888c2cd14610211578063ca653d2314610239578063cf09e0d01461024c578063fd43a9ec14610255575f80fd5b806378ce0102146101ad578063893d20e8146101cd5780638da4d3c9146101e757806392a22a95146101fe575f80fd5b80634e8d92cb116100ce5780634e8d92cb146101515780635aef24471461016b57806365de97a61461018b57806377bfbdc114610193575f80fd5b80632ac136e9146100f45780632ac9f6ef146101095780632cc43acb14610127575b5f80fd5b6101076101023660046115fe565b610268565b005b6101116105ca565b60405161011e91906116b3565b60405180910390f35b61013a6101353660046116cc565b610656565b60408051921515835260208301919091520161011e565b6101596106a4565b60405161011e969594939291906116e3565b61017e6101793660046116cc565b6108e7565b60405161011e919061177f565b610111610c4f565b61019b610c5c565b60405161011e9695949392919061184b565b6101c06101bb36600461193e565b611049565b60405161011e9190611957565b5f546040516001600160a01b03909116815260200161011e565b6101f0600a5481565b60405190815260200161011e565b61010761020c36600461199a565b6110b2565b61022461021f3660046116cc565b611288565b60405161011e999897969594939291906119f2565b6101f0610247366004611a7f565b6114fa565b6101f060095481565b610107610263366004611aa7565b611525565b60085460ff166102b65760405162461bcd60e51b8152602060048201526014602482015273506f6c696379206973206e6f742061637469766560601b60448201526064015b60405180910390fd5b5f84116103055760405162461bcd60e51b815260206004820152601d60248201527f416d6f756e74206d7573742062652067726561746572207468616e203000000060448201526064016102ad565b6006548411156103575760405162461bcd60e51b815260206004820152601d60248201527f416d6f756e74206578636565647320706f6c696379206d6178696d756d00000060448201526064016102ad565b8161039c5760405162461bcd60e51b8152602060048201526015602482015274149958d95a5c1d081a185cda081c995c5d5a5c9959605a1b60448201526064016102ad565b600a8054905f6103ab83611ac6565b91905055505f604051806101200160405280336001600160a01b03168152602001848152602001868152602001600360040180546103e890611aea565b80601f016020809104026020016040519081016040528092919081815260200182805461041490611aea565b801561045f5780601f106104365761010080835404028352916020019161045f565b820191905f5260205f20905b81548152906001019060200180831161044257829003601f168201915b5050509183525050602081018690524260408201526060015f815260408051602080820183525f80835281850192909252928201869052600a548152600b8352819020835181546001600160a01b0319166001600160a01b0390911617815591830151600183015582015160028201556060820151919250829160038201906104e89082611b6e565b50608082015160048201906104fd9082611b6e565b5060a0820151600582015560c082015160068201805460ff1916600183600281111561052b5761052b61174b565b021790555060e082015160078201906105449082611b6e565b50610100820151600882019061055a9082611b6e565b5050335f818152600c60209081526040808320600a80548254600181018455928652939094200191909155905490517f95081ad7e72ba2e9a9457b1b8f0b632d020ea774fd5da576c1202d599041829493506105bb92908990600790611c2e565b60405180910390a15050505050565b600280546105d790611aea565b80601f016020809104026020016040519081016040528092919081815260200182805461060390611aea565b801561064e5780601f106106255761010080835404028352916020019161064e565b820191905f5260205f20905b81548152906001019060200180831161063157829003601f168201915b505050505081565b5f8060015b600a548111610699575f818152600b602052604090206001015484900361068757600194909350915050565b8061069181611ac6565b91505061065b565b505f93849350915050565b6003805481906106b390611aea565b80601f01602080910402602001604051908101604052809291908181526020018280546106df90611aea565b801561072a5780601f106107015761010080835404028352916020019161072a565b820191905f5260205f20905b81548152906001019060200180831161070d57829003601f168201915b50505050509080600101805461073f90611aea565b80601f016020809104026020016040519081016040528092919081815260200182805461076b90611aea565b80156107b65780601f1061078d576101008083540402835291602001916107b6565b820191905f5260205f20905b81548152906001019060200180831161079957829003601f168201915b5050505050908060020180546107cb90611aea565b80601f01602080910402602001604051908101604052809291908181526020018280546107f790611aea565b80156108425780601f1061081957610100808354040283529160200191610842565b820191905f5260205f20905b81548152906001019060200180831161082557829003601f168201915b50505050509080600301549080600401805461085d90611aea565b80601f016020809104026020016040519081016040528092919081815260200182805461088990611aea565b80156108d45780601f106108ab576101008083540402835291602001916108d4565b820191905f5260205f20905b8154815290600101906020018083116108b757829003601f168201915b5050506005909301549192505060ff1686565b61093460408051610120810182525f808252602082018190529181018290526060808201819052608082015260a081018290529060c0820190815260200160608152602001606081525090565b5f821180156109455750600a548211155b6109845760405162461bcd60e51b815260206004820152601060248201526f125b9d985b1a590818db185a5b48125160821b60448201526064016102ad565b5f828152600b602090815260409182902082516101208101845281546001600160a01b031681526001820154928101929092526002810154928201929092526003820180549192916060840191906109db90611aea565b80601f0160208091040260200160405190810160405280929190818152602001828054610a0790611aea565b8015610a525780601f10610a2957610100808354040283529160200191610a52565b820191905f5260205f20905b815481529060010190602001808311610a3557829003601f168201915b50505050508152602001600482018054610a6b90611aea565b80601f0160208091040260200160405190810160405280929190818152602001828054610a9790611aea565b8015610ae25780601f10610ab957610100808354040283529160200191610ae2565b820191905f5260205f20905b815481529060010190602001808311610ac557829003601f168201915b505050918352505060058201546020820152600682015460409091019060ff166002811115610b1357610b1361174b565b6002811115610b2457610b2461174b565b8152602001600782018054610b3890611aea565b80601f0160208091040260200160405190810160405280929190818152602001828054610b6490611aea565b8015610baf5780601f10610b8657610100808354040283529160200191610baf565b820191905f5260205f20905b815481529060010190602001808311610b9257829003601f168201915b50505050508152602001600882018054610bc890611aea565b80601f0160208091040260200160405190810160405280929190818152602001828054610bf490611aea565b8015610c3f5780601f10610c1657610100808354040283529160200191610c3f565b820191905f5260205f20905b815481529060010190602001808311610c2257829003601f168201915b5050505050815250509050919050565b600180546105d790611aea565b606080610c986040518060c001604052806060815260200160608152602001606081526020015f8152602001606081526020015f151581525090565b5f805f600160026003600a546009545f8054906101000a90046001600160a01b0316858054610cc690611aea565b80601f0160208091040260200160405190810160405280929190818152602001828054610cf290611aea565b8015610d3d5780601f10610d1457610100808354040283529160200191610d3d565b820191905f5260205f20905b815481529060010190602001808311610d2057829003601f168201915b50505050509550848054610d5090611aea565b80601f0160208091040260200160405190810160405280929190818152602001828054610d7c90611aea565b8015610dc75780601f10610d9e57610100808354040283529160200191610dc7565b820191905f5260205f20905b815481529060010190602001808311610daa57829003601f168201915b50505050509450836040518060c00160405290815f82018054610de990611aea565b80601f0160208091040260200160405190810160405280929190818152602001828054610e1590611aea565b8015610e605780601f10610e3757610100808354040283529160200191610e60565b820191905f5260205f20905b815481529060010190602001808311610e4357829003601f168201915b50505050508152602001600182018054610e7990611aea565b80601f0160208091040260200160405190810160405280929190818152602001828054610ea590611aea565b8015610ef05780601f10610ec757610100808354040283529160200191610ef0565b820191905f5260205f20905b815481529060010190602001808311610ed357829003601f168201915b50505050508152602001600282018054610f0990611aea565b80601f0160208091040260200160405190810160405280929190818152602001828054610f3590611aea565b8015610f805780601f10610f5757610100808354040283529160200191610f80565b820191905f5260205f20905b815481529060010190602001808311610f6357829003601f168201915b5050505050815260200160038201548152602001600482018054610fa390611aea565b80601f0160208091040260200160405190810160405280929190818152602001828054610fcf90611aea565b801561101a5780601f10610ff15761010080835404028352916020019161101a565b820191905f5260205f20905b815481529060010190602001808311610ffd57829003601f168201915b50505091835250506005919091015460ff161515602090910152959c949b509499509097509550919350915050565b6001600160a01b0381165f908152600c60209081526040918290208054835181840281018401909452808452606093928301828280156110a657602002820191905f5260205f20905b815481526020019060010190808311611092575b50505050509050919050565b5f546001600160a01b031633146110db5760405162461bcd60e51b81526004016102ad90611cd6565b5f831180156110ec5750600a548311155b61112b5760405162461bcd60e51b815260206004820152601060248201526f125b9d985b1a590818db185a5b48125160821b60448201526064016102ad565b5f82600281111561113e5761113e61174b565b036111845760405162461bcd60e51b8152602060048201526016602482015275135d5cdd08185c1c1c9bdd99481bdc881c995a9958dd60521b60448201526064016102ad565b5f838152600b6020526040812090600682015460ff1660028111156111ab576111ab61174b565b146111f85760405162461bcd60e51b815260206004820152601760248201527f436c61696d20616c72656164792070726f63657373656400000000000000000060448201526064016102ad565b60068101805484919060ff191660018360028111156112195761121961174b565b021790555060028360028111156112325761123261174b565b0361124757600781016112458382611b6e565b505b7f90cf60eeb9a1734a599dde8e10e8c2aaefed4158e13962cd4d8e6998dc14c0e484848460405161127a93929190611d1f565b60405180910390a150505050565b600b6020525f908152604090208054600182015460028301546003840180546001600160a01b039094169492939192916112c190611aea565b80601f01602080910402602001604051908101604052809291908181526020018280546112ed90611aea565b80156113385780601f1061130f57610100808354040283529160200191611338565b820191905f5260205f20905b81548152906001019060200180831161131b57829003601f168201915b50505050509080600401805461134d90611aea565b80601f016020809104026020016040519081016040528092919081815260200182805461137990611aea565b80156113c45780601f1061139b576101008083540402835291602001916113c4565b820191905f5260205f20905b8154815290600101906020018083116113a757829003601f168201915b50505050600583015460068401546007850180549495929460ff9092169350906113ed90611aea565b80601f016020809104026020016040519081016040528092919081815260200182805461141990611aea565b80156114645780601f1061143b57610100808354040283529160200191611464565b820191905f5260205f20905b81548152906001019060200180831161144757829003601f168201915b50505050509080600801805461147990611aea565b80601f01602080910402602001604051908101604052809291908181526020018280546114a590611aea565b80156114f05780601f106114c7576101008083540402835291602001916114f0565b820191905f5260205f20905b8154815290600101906020018083116114d357829003601f168201915b5050505050905089565b600c602052815f5260405f208181548110611513575f80fd5b905f5260205f20015f91509150505481565b5f546001600160a01b0316331461154e5760405162461bcd60e51b81526004016102ad90611cd6565b6008805460ff1916911515919091179055565b634e487b7160e01b5f52604160045260245ffd5b5f82601f830112611584575f80fd5b813567ffffffffffffffff8082111561159f5761159f611561565b604051601f8301601f19908116603f011681019082821181831017156115c7576115c7611561565b816040528381528660208588010111156115df575f80fd5b836020870160208301375f602085830101528094505050505092915050565b5f805f8060808587031215611611575f80fd5b84359350602085013567ffffffffffffffff8082111561162f575f80fd5b61163b88838901611575565b9450604087013593506060870135915080821115611657575f80fd5b5061166487828801611575565b91505092959194509250565b5f81518084525f5b8181101561169457602081850181015186830182015201611678565b505f602082860101526020601f19601f83011685010191505092915050565b602081525f6116c56020830184611670565b9392505050565b5f602082840312156116dc575f80fd5b5035919050565b60c081525f6116f560c0830189611670565b82810360208401526117078189611670565b9050828103604084015261171b8188611670565b905085606084015282810360808401526117358186611670565b91505082151560a0830152979650505050505050565b634e487b7160e01b5f52602160045260245ffd5b6003811061177b57634e487b7160e01b5f52602160045260245ffd5b9052565b602081526117996020820183516001600160a01b03169052565b60208201516040820152604082015160608201525f60608301516101208060808501526117ca610140850183611670565b91506080850151601f19808685030160a08701526117e88483611670565b935060a087015160c087015260c0870151915061180860e087018361175f565b60e087015191506101008187860301818801526118258584611670565b9088015187820390920184880152935090506118418382611670565b9695505050505050565b60c081525f61185d60c0830189611670565b828103602084015261186f8189611670565b90508281036040840152865160c0825261188c60c0830182611670565b9050602088015182820360208401526118a58282611670565b915050604088015182820360408401526118bf8282611670565b91505060608801516060830152608088015182820360808401526118e38282611670565b91505060a0880151151560a0830152809250505084606083015283608083015261191860a08301846001600160a01b03169052565b979650505050505050565b80356001600160a01b0381168114611939575f80fd5b919050565b5f6020828403121561194e575f80fd5b6116c582611923565b602080825282518282018190525f9190848201906040850190845b8181101561198e57835183529284019291840191600101611972565b50909695505050505050565b5f805f606084860312156119ac575f80fd5b833592506020840135600381106119c1575f80fd5b9150604084013567ffffffffffffffff8111156119dc575f80fd5b6119e886828701611575565b9150509250925092565b5f61012060018060a01b038c1683528a6020840152896040840152806060840152611a1f8184018a611670565b90508281036080840152611a338189611670565b90508660a0840152611a4860c084018761175f565b82810360e0840152611a5a8186611670565b9050828103610100840152611a6f8185611670565b9c9b505050505050505050505050565b5f8060408385031215611a90575f80fd5b611a9983611923565b946020939093013593505050565b5f60208284031215611ab7575f80fd5b813580151581146116c5575f80fd5b5f60018201611ae357634e487b7160e01b5f52601160045260245ffd5b5060010190565b600181811c90821680611afe57607f821691505b602082108103611b1c57634e487b7160e01b5f52602260045260245ffd5b50919050565b601f821115611b6957805f5260205f20601f840160051c81016020851015611b475750805b601f840160051c820191505b81811015611b66575f8155600101611b53565b50505b505050565b815167ffffffffffffffff811115611b8857611b88611561565b611b9c81611b968454611aea565b84611b22565b602080601f831160018114611bcf575f8415611bb85750858301515b5f19600386901b1c1916600185901b178555611c26565b5f85815260208120601f198616915b82811015611bfd57888601518255948401946001909101908401611bde565b5085821015611c1a57878501515f19600388901b60f8161c191681555b505060018460011b0185555b505050505050565b8481525f602060018060a01b0386166020840152846040840152608060608401525f8454611c5b81611aea565b80608087015260a060018084165f8114611c7c5760018114611c9857611cc5565b60ff19851660a08a015260a084151560051b8a01019550611cc5565b895f5260205f205f5b85811015611cbc5781548b8201860152908301908801611ca1565b8a0160a0019650505b50939b9a5050505050505050505050565b60208082526029908201527f4f6e6c7920706f6c696379206f776e65722063616e20706572666f726d20746860408201526834b99030b1ba34b7b760b91b606082015260800190565b838152611d2f602082018461175f565b606060408201525f611d446060830184611670565b9594505050505056fea26469706673582212201bb001f72a423f97529174c9422489ed820bd313ec35a86f0da5eb357dbd0b9764736f6c63430008170033","linkReferences":{}},"methodIdentifiers":{"claimCount()":"8da4d3c9","claims(uint256)":"a888c2cd","createdAt()":"cf09e0d0","employeeClaims(address,uint256)":"ca653d23","getClaim(uint256)":"5aef2447","getEmployeeClaims(address)":"78ce0102","getOwner()":"893d20e8","getPolicyMetadata()":"77bfbdc1","policyDescription()":"2ac9f6ef","policyName()":"65de97a6","policyParams()":"4e8d92cb","processClaim(uint256,uint8,string)":"92a22a95","submitClaim(uint256,string,bytes32,string)":"2ac136e9","updatePolicyStatus(bool)":"fd43a9ec","validateReceipt(bytes32)":"2cc43acb"},"id":0}