{"abi":[{"type":"constructor","inputs":[{"name":"_policyName","type":"string","internalType":"string"},{"name":"_policyDescription","type":"string","internalType":"string"},{"name":"_businessType","type":"string","internalType":"string"},{"name":"_location","type":"string","internalType":"string"},{"name":"_employeeCount","type":"string","internalType":"string"},{"name":"_maxAmount","type":"uint256","internalType":"uint256"},{"name":"_category","type":"string","internalType":"string"},{"name":"_usdfc","type":"address","internalType":"address"}],"stateMutability":"nonpayable"},{"type":"function","name":"claimCount","inputs":[],"outputs":[{"name":"","type":"uint256","internalType":"uint256"}],"stateMutability":"view"},{"type":"function","name":"claims","inputs":[{"name":"","type":"uint256","internalType":"uint256"}],"outputs":[{"name":"employee","type":"address","internalType":"address"},{"name":"receiptHash","type":"bytes32","internalType":"bytes32"},{"name":"amount","type":"uint256","internalType":"uint256"},{"name":"category","type":"string","internalType":"string"},{"name":"description","type":"string","internalType":"string"},{"name":"timestamp","type":"uint256","internalType":"uint256"},{"name":"status","type":"uint8","internalType":"enum ClearedContract.ClaimStatus"},{"name":"rejectionReason","type":"string","internalType":"string"},{"name":"receiptCid","type":"string","internalType":"string"}],"stateMutability":"view"},{"type":"function","name":"createdAt","inputs":[],"outputs":[{"name":"","type":"uint256","internalType":"uint256"}],"stateMutability":"view"},{"type":"function","name":"employeeClaims","inputs":[{"name":"","type":"address","internalType":"address"},{"name":"","type":"uint256","internalType":"uint256"}],"outputs":[{"name":"","type":"uint256","internalType":"uint256"}],"stateMutability":"view"},{"type":"function","name":"fundContract","inputs":[{"name":"_amount","type":"uint256","internalType":"uint256"}],"outputs":[],"stateMutability":"nonpayable"},{"type":"function","name":"getClaim","inputs":[{"name":"_claimId","type":"uint256","internalType":"uint256"}],"outputs":[{"name":"","type":"tuple","internalType":"struct ClearedContract.ReimbursementClaim","components":[{"name":"employee","type":"address","internalType":"address"},{"name":"receiptHash","type":"bytes32","internalType":"bytes32"},{"name":"amount","type":"uint256","internalType":"uint256"},{"name":"category","type":"string","internalType":"string"},{"name":"description","type":"string","internalType":"string"},{"name":"timestamp","type":"uint256","internalType":"uint256"},{"name":"status","type":"uint8","internalType":"enum ClearedContract.ClaimStatus"},{"name":"rejectionReason","type":"string","internalType":"string"},{"name":"receiptCid","type":"string","internalType":"string"}]}],"stateMutability":"view"},{"type":"function","name":"getContractBalance","inputs":[],"outputs":[{"name":"","type":"uint256","internalType":"uint256"}],"stateMutability":"view"},{"type":"function","name":"getEmployeeClaims","inputs":[{"name":"_employee","type":"address","internalType":"address"}],"outputs":[{"name":"","type":"uint256[]","internalType":"uint256[]"}],"stateMutability":"view"},{"type":"function","name":"getOwner","inputs":[],"outputs":[{"name":"","type":"address","internalType":"address"}],"stateMutability":"view"},{"type":"function","name":"getPolicyMetadata","inputs":[],"outputs":[{"name":"","type":"string","internalType":"string"},{"name":"","type":"string","internalType":"string"},{"name":"","type":"tuple","internalType":"struct ClearedContract.PolicyParams","components":[{"name":"businessType","type":"string","internalType":"string"},{"name":"location","type":"string","internalType":"string"},{"name":"employeeCount","type":"string","internalType":"string"},{"name":"maxAmount","type":"uint256","internalType":"uint256"},{"name":"category","type":"string","internalType":"string"},{"name":"isActive","type":"bool","internalType":"bool"}]},{"name":"","type":"uint256","internalType":"uint256"},{"name":"","type":"uint256","internalType":"uint256"},{"name":"","type":"address","internalType":"address"}],"stateMutability":"view"},{"type":"function","name":"getUSDFCAddress","inputs":[],"outputs":[{"name":"","type":"address","internalType":"address"}],"stateMutability":"view"},{"type":"function","name":"policyDescription","inputs":[],"outputs":[{"name":"","type":"string","internalType":"string"}],"stateMutability":"view"},{"type":"function","name":"policyName","inputs":[],"outputs":[{"name":"","type":"string","internalType":"string"}],"stateMutability":"view"},{"type":"function","name":"policyParams","inputs":[],"outputs":[{"name":"businessType","type":"string","internalType":"string"},{"name":"location","type":"string","internalType":"string"},{"name":"employeeCount","type":"string","internalType":"string"},{"name":"maxAmount","type":"uint256","internalType":"uint256"},{"name":"category","type":"string","internalType":"string"},{"name":"isActive","type":"bool","internalType":"bool"}],"stateMutability":"view"},{"type":"function","name":"processClaim","inputs":[{"name":"_claimId","type":"uint256","internalType":"uint256"},{"name":"_status","type":"uint8","internalType":"enum ClearedContract.ClaimStatus"},{"name":"_reason","type":"string","internalType":"string"}],"outputs":[],"stateMutability":"nonpayable"},{"type":"function","name":"submitClaim","inputs":[{"name":"_amount","type":"uint256","internalType":"uint256"},{"name":"_description","type":"string","internalType":"string"},{"name":"_receiptHash","type":"bytes32","internalType":"bytes32"},{"name":"_receiptCid","type":"string","internalType":"string"}],"outputs":[],"stateMutability":"nonpayable"},{"type":"function","name":"totalFunded","inputs":[],"outputs":[{"name":"","type":"uint256","internalType":"uint256"}],"stateMutability":"view"},{"type":"function","name":"totalReimbursed","inputs":[],"outputs":[{"name":"","type":"uint256","internalType":"uint256"}],"stateMutability":"view"},{"type":"function","name":"updatePolicyStatus","inputs":[{"name":"_isActive","type":"bool","internalType":"bool"}],"outputs":[],"stateMutability":"nonpayable"},{"type":"function","name":"usdfc","inputs":[],"outputs":[{"name":"","type":"address","internalType":"contract IERC20"}],"stateMutability":"view"},{"type":"function","name":"validateReceipt","inputs":[{"name":"_receiptHash","type":"bytes32","internalType":"bytes32"}],"outputs":[{"name":"exists","type":"bool","internalType":"bool"},{"name":"claimId","type":"uint256","internalType":"uint256"}],"stateMutability":"view"},{"type":"function","name":"withdrawFunds","inputs":[{"name":"_amount","type":"uint256","internalType":"uint256"}],"outputs":[],"stateMutability":"nonpayable"},{"type":"event","name":"ClaimProcessed","inputs":[{"name":"claimId","type":"uint256","indexed":false,"internalType":"uint256"},{"name":"status","type":"uint8","indexed":false,"internalType":"enum ClearedContract.ClaimStatus"},{"name":"reason","type":"string","indexed":false,"internalType":"string"}],"anonymous":false},{"type":"event","name":"ClaimSubmitted","inputs":[{"name":"claimId","type":"uint256","indexed":false,"internalType":"uint256"},{"name":"employee","type":"address","indexed":false,"internalType":"address"},{"name":"amount","type":"uint256","indexed":false,"internalType":"uint256"},{"name":"category","type":"string","indexed":false,"internalType":"string"}],"anonymous":false},{"type":"event","name":"FundsWithdrawn","inputs":[{"name":"owner","type":"address","indexed":false,"internalType":"address"},{"name":"amount","type":"uint256","indexed":false,"internalType":"uint256"}],"anonymous":false},{"type":"event","name":"PolicyCreated","inputs":[{"name":"owner","type":"address","indexed":false,"internalType":"address"},{"name":"policyName","type":"string","indexed":false,"internalType":"string"},{"name":"maxAmount","type":"uint256","indexed":false,"internalType":"uint256"},{"name":"category","type":"string","indexed":false,"internalType":"string"}],"anonymous":false},{"type":"event","name":"PolicyFunded","inputs":[{"name":"funder","type":"address","indexed":false,"internalType":"address"},{"name":"amount","type":"uint256","indexed":false,"internalType":"uint256"}],"anonymous":false},{"type":"event","name":"ReimbursementPaid","inputs":[{"name":"claimId","type":"uint256","indexed":false,"internalType":"uint256"},{"name":"employee","type":"address","indexed":false,"internalType":"address"},{"name":"amount","type":"uint256","indexed":false,"internalType":"uint256"}],"anonymous":false}],"bytecode":{"object":"0x60a0604052426009555f600a555f600d555f600e5534801562000020575f80fd5b5060405162002b1538038062002b158339810160408190526200004391620002ca565b6001600160a01b038116620000a95760405162461bcd60e51b815260206004820152602260248201527f555344464320746f6b656e20616464726573732063616e6e6f74206265207a65604482015261726f60f01b606482015260840160405180910390fd5b5f80546001600160a01b031916331790556001600160a01b0381166080526001620000d589826200046e565b506002620000e488826200046e565b506040805160c081018252878152602081018790529081018590526060810184905260808101839052600160a08201526003806200012389826200046e565b50602082015160018201906200013a90826200046e565b50604082015160028201906200015190826200046e565b5060608201516003820155608082015160048201906200017290826200046e565b5060a091909101516005909101805460ff19169115159190911790555f546040517f54b8a3315640a4494379c0418c5aa2b37a5f4030871fbb6a64cdaaec43e4675291620001d2916001600160a01b03909116908b908790879062000567565b60405180910390a15050505050505050620005b1565b634e487b7160e01b5f52604160045260245ffd5b5f5b8381101562000218578181015183820152602001620001fe565b50505f910152565b5f82601f83011262000230575f80fd5b81516001600160401b03808211156200024d576200024d620001e8565b604051601f8301601f19908116603f01168101908282118183101715620002785762000278620001e8565b8160405283815286602085880101111562000291575f80fd5b620002a4846020830160208901620001fc565b9695505050505050565b80516001600160a01b0381168114620002c5575f80fd5b919050565b5f805f805f805f80610100898b031215620002e3575f80fd5b88516001600160401b0380821115620002fa575f80fd5b620003088c838d0162000220565b995060208b01519150808211156200031e575f80fd5b6200032c8c838d0162000220565b985060408b015191508082111562000342575f80fd5b620003508c838d0162000220565b975060608b015191508082111562000366575f80fd5b620003748c838d0162000220565b965060808b01519150808211156200038a575f80fd5b620003988c838d0162000220565b955060a08b0151945060c08b0151915080821115620003b5575f80fd5b50620003c48b828c0162000220565b925050620003d560e08a01620002ae565b90509295985092959890939650565b600181811c90821680620003f957607f821691505b6020821081036200041857634e487b7160e01b5f52602260045260245ffd5b50919050565b601f8211156200046957805f5260205f20601f840160051c81016020851015620004455750805b601f840160051c820191505b8181101562000466575f815560010162000451565b50505b505050565b81516001600160401b038111156200048a576200048a620001e8565b620004a2816200049b8454620003e4565b846200041e565b602080601f831160018114620004d8575f8415620004c05750858301515b5f19600386901b1c1916600185901b17855562000532565b5f85815260208120601f198616915b828110156200050857888601518255948401946001909101908401620004e7565b50858210156200052657878501515f19600388901b60f8161c191681555b505060018460011b0185555b505050505050565b5f815180845262000553816020860160208601620001fc565b601f01601f19169290920160200192915050565b6001600160a01b03851681526080602082018190525f906200058c908301866200053a565b8460408401528281036060840152620005a681856200053a565b979650505050505050565b60805161251a620005fb5f395f818161014601528181610201015281816103b401528181610495015281816109d70152818161108a0152818161171f0152611825015261251a5ff3fe608060405234801561000f575f80fd5b506004361061013d575f3560e01c80636f9fb98a116100b457806392a22a951161007957806392a22a95146102d9578063a888c2cd146102ec578063ad044f4914610314578063ca653d231461031d578063cf09e0d014610330578063fd43a9ec14610339575f80fd5b80636f9fb98a1461027e57806377bfbdc11461028657806378ce0102146102a0578063893d20e8146102c05780638da4d3c9146102d0575f80fd5b80633519a2f8116101055780633519a2f8146101ec578063498ac058146101ff5780634e8d92cb146102255780635aef24471461023f57806364910cc81461025f57806365de97a614610276575f80fd5b80631006e4cb14610141578063155dd5ee146101855780632ac136e91461019a5780632ac9f6ef146101ad5780632cc43acb146101c2575b5f80fd5b6101687f000000000000000000000000000000000000000000000000000000000000000081565b6040516001600160a01b0390911681526020015b60405180910390f35b610198610193366004611c33565b61034c565b005b6101986101a8366004611ce7565b610564565b6101b5610891565b60405161017c9190611d9c565b6101d56101d0366004611c33565b61091d565b60408051921515835260208301919091520161017c565b6101986101fa366004611c33565b61096b565b7f0000000000000000000000000000000000000000000000000000000000000000610168565b61022d610abb565b60405161017c96959493929190611db5565b61025261024d366004611c33565b610cfe565b60405161017c9190611e51565b610268600e5481565b60405190815260200161017c565b6101b5611066565b610268611073565b61028e611100565b60405161017c96959493929190611f1d565b6102b36102ae366004612010565b6114ed565b60405161017c9190612029565b5f546001600160a01b0316610168565b610268600a5481565b6101986102e736600461206c565b611556565b6102ff6102fa366004611c33565b61195a565b60405161017c999897969594939291906120c4565b610268600d5481565b61026861032b366004612151565b611bcc565b61026860095481565b610198610347366004612189565b611bf7565b5f546001600160a01b0316331461037e5760405162461bcd60e51b8152600401610375906121a4565b60405180910390fd5b5f811161039d5760405162461bcd60e51b8152600401610375906121ed565b6040516370a0823160e01b81523060048201525f907f00000000000000000000000000000000000000000000000000000000000000006001600160a01b0316906370a0823190602401602060405180830381865afa158015610401573d5f803e3d5ffd5b505050506040513d601f19601f820116820180604052508101906104259190612224565b9050818110156104775760405162461bcd60e51b815260206004820152601d60248201527f496e73756666696369656e7420636f6e74726163742062616c616e63650000006044820152606401610375565b60405163a9059cbb60e01b8152336004820152602481018390525f907f00000000000000000000000000000000000000000000000000000000000000006001600160a01b03169063a9059cbb906044016020604051808303815f875af11580156104e3573d5f803e3d5ffd5b505050506040513d601f19601f82011682018060405250810190610507919061223b565b9050806105265760405162461bcd60e51b815260040161037590612256565b60408051338152602081018590527feaff4b37086828766ad3268786972c0cd24259d4c87a80f9d3963a3c3d999b0d910160405180910390a1505050565b60085460ff166105ad5760405162461bcd60e51b8152602060048201526014602482015273506f6c696379206973206e6f742061637469766560601b6044820152606401610375565b5f84116105cc5760405162461bcd60e51b8152600401610375906121ed565b60065484111561061e5760405162461bcd60e51b815260206004820152601d60248201527f416d6f756e74206578636565647320706f6c696379206d6178696d756d0000006044820152606401610375565b816106635760405162461bcd60e51b8152602060048201526015602482015274149958d95a5c1d081a185cda081c995c5d5a5c9959605a1b6044820152606401610375565b600a8054905f61067283612299565b91905055505f604051806101200160405280336001600160a01b03168152602001848152602001868152602001600360040180546106af906122b1565b80601f01602080910402602001604051908101604052809291908181526020018280546106db906122b1565b80156107265780601f106106fd57610100808354040283529160200191610726565b820191905f5260205f20905b81548152906001019060200180831161070957829003601f168201915b5050509183525050602081018690524260408201526060015f815260408051602080820183525f80835281850192909252928201869052600a548152600b8352819020835181546001600160a01b0319166001600160a01b0390911617815591830151600183015582015160028201556060820151919250829160038201906107af9082612335565b50608082015160048201906107c49082612335565b5060a0820151600582015560c082015160068201805460ff191660018360028111156107f2576107f2611e1d565b021790555060e0820151600782019061080b9082612335565b5061010082015160088201906108219082612335565b5050335f818152600c60209081526040808320600a80548254600181018455928652939094200191909155905490517f95081ad7e72ba2e9a9457b1b8f0b632d020ea774fd5da576c1202d59904182949350610882929089906007906123f5565b60405180910390a15050505050565b6002805461089e906122b1565b80601f01602080910402602001604051908101604052809291908181526020018280546108ca906122b1565b80156109155780601f106108ec57610100808354040283529160200191610915565b820191905f5260205f20905b8154815290600101906020018083116108f857829003601f168201915b505050505081565b5f8060015b600a548111610960575f818152600b602052604090206001015484900361094e57600194909350915050565b8061095881612299565b915050610922565b505f93849350915050565b5f546001600160a01b031633146109945760405162461bcd60e51b8152600401610375906121a4565b5f81116109b35760405162461bcd60e51b8152600401610375906121ed565b6040516323b872dd60e01b8152336004820152306024820152604481018290525f907f00000000000000000000000000000000000000000000000000000000000000006001600160a01b0316906323b872dd906064016020604051808303815f875af1158015610a25573d5f803e3d5ffd5b505050506040513d601f19601f82011682018060405250810190610a49919061223b565b905080610a685760405162461bcd60e51b815260040161037590612256565b81600d5f828254610a79919061249d565b909155505060408051338152602081018490527fd356f7331c13531adfd8e4a94db0798ee057f63b5f809e28e98d373e611b8cf0910160405180910390a15050565b600380548190610aca906122b1565b80601f0160208091040260200160405190810160405280929190818152602001828054610af6906122b1565b8015610b415780601f10610b1857610100808354040283529160200191610b41565b820191905f5260205f20905b815481529060010190602001808311610b2457829003601f168201915b505050505090806001018054610b56906122b1565b80601f0160208091040260200160405190810160405280929190818152602001828054610b82906122b1565b8015610bcd5780601f10610ba457610100808354040283529160200191610bcd565b820191905f5260205f20905b815481529060010190602001808311610bb057829003601f168201915b505050505090806002018054610be2906122b1565b80601f0160208091040260200160405190810160405280929190818152602001828054610c0e906122b1565b8015610c595780601f10610c3057610100808354040283529160200191610c59565b820191905f5260205f20905b815481529060010190602001808311610c3c57829003601f168201915b505050505090806003015490806004018054610c74906122b1565b80601f0160208091040260200160405190810160405280929190818152602001828054610ca0906122b1565b8015610ceb5780601f10610cc257610100808354040283529160200191610ceb565b820191905f5260205f20905b815481529060010190602001808311610cce57829003601f168201915b5050506005909301549192505060ff1686565b610d4b60408051610120810182525f808252602082018190529181018290526060808201819052608082015260a081018290529060c0820190815260200160608152602001606081525090565b5f82118015610d5c5750600a548211155b610d9b5760405162461bcd60e51b815260206004820152601060248201526f125b9d985b1a590818db185a5b48125160821b6044820152606401610375565b5f828152600b602090815260409182902082516101208101845281546001600160a01b03168152600182015492810192909252600281015492820192909252600382018054919291606084019190610df2906122b1565b80601f0160208091040260200160405190810160405280929190818152602001828054610e1e906122b1565b8015610e695780601f10610e4057610100808354040283529160200191610e69565b820191905f5260205f20905b815481529060010190602001808311610e4c57829003601f168201915b50505050508152602001600482018054610e82906122b1565b80601f0160208091040260200160405190810160405280929190818152602001828054610eae906122b1565b8015610ef95780601f10610ed057610100808354040283529160200191610ef9565b820191905f5260205f20905b815481529060010190602001808311610edc57829003601f168201915b505050918352505060058201546020820152600682015460409091019060ff166002811115610f2a57610f2a611e1d565b6002811115610f3b57610f3b611e1d565b8152602001600782018054610f4f906122b1565b80601f0160208091040260200160405190810160405280929190818152602001828054610f7b906122b1565b8015610fc65780601f10610f9d57610100808354040283529160200191610fc6565b820191905f5260205f20905b815481529060010190602001808311610fa957829003601f168201915b50505050508152602001600882018054610fdf906122b1565b80601f016020809104026020016040519081016040528092919081815260200182805461100b906122b1565b80156110565780601f1061102d57610100808354040283529160200191611056565b820191905f5260205f20905b81548152906001019060200180831161103957829003601f168201915b5050505050815250509050919050565b6001805461089e906122b1565b6040516370a0823160e01b81523060048201525f907f00000000000000000000000000000000000000000000000000000000000000006001600160a01b0316906370a0823190602401602060405180830381865afa1580156110d7573d5f803e3d5ffd5b505050506040513d601f19601f820116820180604052508101906110fb9190612224565b905090565b60608061113c6040518060c001604052806060815260200160608152602001606081526020015f8152602001606081526020015f151581525090565b5f805f600160026003600a546009545f8054906101000a90046001600160a01b031685805461116a906122b1565b80601f0160208091040260200160405190810160405280929190818152602001828054611196906122b1565b80156111e15780601f106111b8576101008083540402835291602001916111e1565b820191905f5260205f20905b8154815290600101906020018083116111c457829003601f168201915b505050505095508480546111f4906122b1565b80601f0160208091040260200160405190810160405280929190818152602001828054611220906122b1565b801561126b5780601f106112425761010080835404028352916020019161126b565b820191905f5260205f20905b81548152906001019060200180831161124e57829003601f168201915b50505050509450836040518060c00160405290815f8201805461128d906122b1565b80601f01602080910402602001604051908101604052809291908181526020018280546112b9906122b1565b80156113045780601f106112db57610100808354040283529160200191611304565b820191905f5260205f20905b8154815290600101906020018083116112e757829003601f168201915b5050505050815260200160018201805461131d906122b1565b80601f0160208091040260200160405190810160405280929190818152602001828054611349906122b1565b80156113945780601f1061136b57610100808354040283529160200191611394565b820191905f5260205f20905b81548152906001019060200180831161137757829003601f168201915b505050505081526020016002820180546113ad906122b1565b80601f01602080910402602001604051908101604052809291908181526020018280546113d9906122b1565b80156114245780601f106113fb57610100808354040283529160200191611424565b820191905f5260205f20905b81548152906001019060200180831161140757829003601f168201915b5050505050815260200160038201548152602001600482018054611447906122b1565b80601f0160208091040260200160405190810160405280929190818152602001828054611473906122b1565b80156114be5780601f10611495576101008083540402835291602001916114be565b820191905f5260205f20905b8154815290600101906020018083116114a157829003601f168201915b50505091835250506005919091015460ff161515602090910152959c949b509499509097509550919350915050565b6001600160a01b0381165f908152600c602090815260409182902080548351818402810184019094528084526060939283018282801561154a57602002820191905f5260205f20905b815481526020019060010190808311611536575b50505050509050919050565b5f546001600160a01b0316331461157f5760405162461bcd60e51b8152600401610375906121a4565b5f831180156115905750600a548311155b6115cf5760405162461bcd60e51b815260206004820152601060248201526f125b9d985b1a590818db185a5b48125160821b6044820152606401610375565b5f8260028111156115e2576115e2611e1d565b036116285760405162461bcd60e51b8152602060048201526016602482015275135d5cdd08185c1c1c9bdd99481bdc881c995a9958dd60521b6044820152606401610375565b5f838152600b6020526040812090600682015460ff16600281111561164f5761164f611e1d565b1461169c5760405162461bcd60e51b815260206004820152601760248201527f436c61696d20616c72656164792070726f6365737365640000000000000000006044820152606401610375565b60068101805484919060ff191660018360028111156116bd576116bd611e1d565b021790555060028360028111156116d6576116d6611e1d565b036116ef57600781016116e98382612335565b50611919565b600183600281111561170357611703611e1d565b03611919576040516370a0823160e01b81523060048201525f907f00000000000000000000000000000000000000000000000000000000000000006001600160a01b0316906370a0823190602401602060405180830381865afa15801561176c573d5f803e3d5ffd5b505050506040513d601f19601f820116820180604052508101906117909190612224565b905081600201548110156117f55760405162461bcd60e51b815260206004820152602660248201527f496e73756666696369656e742055534446432062616c616e636520696e20636f6044820152651b9d1c9858dd60d21b6064820152608401610375565b8154600283015460405163a9059cbb60e01b81526001600160a01b03928316600482015260248101919091525f917f0000000000000000000000000000000000000000000000000000000000000000169063a9059cbb906044016020604051808303815f875af115801561186b573d5f803e3d5ffd5b505050506040513d601f19601f8201168201806040525081019061188f919061223b565b9050806118ae5760405162461bcd60e51b815260040161037590612256565b8260020154600e5f8282546118c3919061249d565b909155505082546002840154604080518981526001600160a01b0390931660208401528201527fcc2d362b957d04e750f532cd953c674a15910197baafb95c2d9c348bd7174de49060600160405180910390a150505b7f90cf60eeb9a1734a599dde8e10e8c2aaefed4158e13962cd4d8e6998dc14c0e484848460405161194c939291906124b6565b60405180910390a150505050565b600b6020525f908152604090208054600182015460028301546003840180546001600160a01b03909416949293919291611993906122b1565b80601f01602080910402602001604051908101604052809291908181526020018280546119bf906122b1565b8015611a0a5780601f106119e157610100808354040283529160200191611a0a565b820191905f5260205f20905b8154815290600101906020018083116119ed57829003601f168201915b505050505090806004018054611a1f906122b1565b80601f0160208091040260200160405190810160405280929190818152602001828054611a4b906122b1565b8015611a965780601f10611a6d57610100808354040283529160200191611a96565b820191905f5260205f20905b815481529060010190602001808311611a7957829003601f168201915b50505050600583015460068401546007850180549495929460ff909216935090611abf906122b1565b80601f0160208091040260200160405190810160405280929190818152602001828054611aeb906122b1565b8015611b365780601f10611b0d57610100808354040283529160200191611b36565b820191905f5260205f20905b815481529060010190602001808311611b1957829003601f168201915b505050505090806008018054611b4b906122b1565b80601f0160208091040260200160405190810160405280929190818152602001828054611b77906122b1565b8015611bc25780601f10611b9957610100808354040283529160200191611bc2565b820191905f5260205f20905b815481529060010190602001808311611ba557829003601f168201915b5050505050905089565b600c602052815f5260405f208181548110611be5575f80fd5b905f5260205f20015f91509150505481565b5f546001600160a01b03163314611c205760405162461bcd60e51b8152600401610375906121a4565b6008805460ff1916911515919091179055565b5f60208284031215611c43575f80fd5b5035919050565b634e487b7160e01b5f52604160045260245ffd5b5f82601f830112611c6d575f80fd5b813567ffffffffffffffff80821115611c8857611c88611c4a565b604051601f8301601f19908116603f01168101908282118183101715611cb057611cb0611c4a565b81604052838152866020858801011115611cc8575f80fd5b836020870160208301375f602085830101528094505050505092915050565b5f805f8060808587031215611cfa575f80fd5b84359350602085013567ffffffffffffffff80821115611d18575f80fd5b611d2488838901611c5e565b9450604087013593506060870135915080821115611d40575f80fd5b50611d4d87828801611c5e565b91505092959194509250565b5f81518084525f5b81811015611d7d57602081850181015186830182015201611d61565b505f602082860101526020601f19601f83011685010191505092915050565b602081525f611dae6020830184611d59565b9392505050565b60c081525f611dc760c0830189611d59565b8281036020840152611dd98189611d59565b90508281036040840152611ded8188611d59565b90508560608401528281036080840152611e078186611d59565b91505082151560a0830152979650505050505050565b634e487b7160e01b5f52602160045260245ffd5b60038110611e4d57634e487b7160e01b5f52602160045260245ffd5b9052565b60208152611e6b6020820183516001600160a01b03169052565b60208201516040820152604082015160608201525f6060830151610120806080850152611e9c610140850183611d59565b91506080850151601f19808685030160a0870152611eba8483611d59565b935060a087015160c087015260c08701519150611eda60e0870183611e31565b60e08701519150610100818786030181880152611ef78584611d59565b908801518782039092018488015293509050611f138382611d59565b9695505050505050565b60c081525f611f2f60c0830189611d59565b8281036020840152611f418189611d59565b90508281036040840152865160c08252611f5e60c0830182611d59565b905060208801518282036020840152611f778282611d59565b91505060408801518282036040840152611f918282611d59565b9150506060880151606083015260808801518282036080840152611fb58282611d59565b91505060a0880151151560a08301528092505050846060830152836080830152611fea60a08301846001600160a01b03169052565b979650505050505050565b80356001600160a01b038116811461200b575f80fd5b919050565b5f60208284031215612020575f80fd5b611dae82611ff5565b602080825282518282018190525f9190848201906040850190845b8181101561206057835183529284019291840191600101612044565b50909695505050505050565b5f805f6060848603121561207e575f80fd5b83359250602084013560038110612093575f80fd5b9150604084013567ffffffffffffffff8111156120ae575f80fd5b6120ba86828701611c5e565b9150509250925092565b5f61012060018060a01b038c1683528a60208401528960408401528060608401526120f18184018a611d59565b905082810360808401526121058189611d59565b90508660a084015261211a60c0840187611e31565b82810360e084015261212c8186611d59565b90508281036101008401526121418185611d59565b9c9b505050505050505050505050565b5f8060408385031215612162575f80fd5b61216b83611ff5565b946020939093013593505050565b8015158114612186575f80fd5b50565b5f60208284031215612199575f80fd5b8135611dae81612179565b60208082526029908201527f4f6e6c7920706f6c696379206f776e65722063616e20706572666f726d20746860408201526834b99030b1ba34b7b760b91b606082015260800190565b6020808252601d908201527f416d6f756e74206d7573742062652067726561746572207468616e2030000000604082015260600190565b5f60208284031215612234575f80fd5b5051919050565b5f6020828403121561224b575f80fd5b8151611dae81612179565b6020808252601590820152741554d11190c81d1c985b9cd9995c8819985a5b1959605a1b604082015260600190565b634e487b7160e01b5f52601160045260245ffd5b5f600182016122aa576122aa612285565b5060010190565b600181811c908216806122c557607f821691505b6020821081036122e357634e487b7160e01b5f52602260045260245ffd5b50919050565b601f82111561233057805f5260205f20601f840160051c8101602085101561230e5750805b601f840160051c820191505b8181101561232d575f815560010161231a565b50505b505050565b815167ffffffffffffffff81111561234f5761234f611c4a565b6123638161235d84546122b1565b846122e9565b602080601f831160018114612396575f841561237f5750858301515b5f19600386901b1c1916600185901b1785556123ed565b5f85815260208120601f198616915b828110156123c4578886015182559484019460019091019084016123a5565b50858210156123e157878501515f19600388901b60f8161c191681555b505060018460011b0185555b505050505050565b8481525f602060018060a01b0386166020840152846040840152608060608401525f8454612422816122b1565b80608087015260a060018084165f8114612443576001811461245f5761248c565b60ff19851660a08a015260a084151560051b8a0101955061248c565b895f5260205f205f5b858110156124835781548b8201860152908301908801612468565b8a0160a0019650505b50939b9a5050505050505050505050565b808201808211156124b0576124b0612285565b92915050565b8381526124c66020820184611e31565b606060408201525f6124db6060830184611d59565b9594505050505056fea2646970667358221220be0f6c86c722e35725ae031e71d835942fbfe837833f384c24c04a5655e4bbfd64736f6c63430008170033","linkReferences":{}},"methodIdentifiers":{"claimCount()":"8da4d3c9","claims(uint256)":"a888c2cd","createdAt()":"cf09e0d0","employeeClaims(address,uint256)":"ca653d23","fundContract(uint256)":"3519a2f8","getClaim(uint256)":"5aef2447","getContractBalance()":"6f9fb98a","getEmployeeClaims(address)":"78ce0102","getOwner()":"893d20e8","getPolicyMetadata()":"77bfbdc1","getUSDFCAddress()":"498ac058","policyDescription()":"2ac9f6ef","policyName()":"65de97a6","policyParams()":"4e8d92cb","processClaim(uint256,uint8,string)":"92a22a95","submitClaim(uint256,string,bytes32,string)":"2ac136e9","totalFunded()":"ad044f49","totalReimbursed()":"64910cc8","updatePolicyStatus(bool)":"fd43a9ec","usdfc()":"1006e4cb","validateReceipt(bytes32)":"2cc43acb","withdrawFunds(uint256)":"155dd5ee"},"id":0}