{
  "abi": [
    {
      "inputs": [
        {
          "internalType": "string",
          "name": "_policyName",
          "type": "string"
        },
        {
          "internalType": "string",
          "name": "_policyDescription",
          "type": "string"
        },
        {
          "internalType": "string",
          "name": "_businessType",
          "type": "string"
        },
        {
          "internalType": "string",
          "name": "_location",
          "type": "string"
        },
        {
          "internalType": "string",
          "name": "_employeeCount",
          "type": "string"
        },
        {
          "internalType": "uint256",
          "name": "_maxAmount",
          "type": "uint256"
        },
        {
          "internalType": "string",
          "name": "_category",
          "type": "string"
        },
        {
          "internalType": "address",
          "name": "_usdfc",
          "type": "address"
        },
        {
          "internalType": "bytes32",
          "name": "_passcodeHash",
          "type": "bytes32"
        }
      ],
      "stateMutability": "nonpayable",
      "type": "constructor"
    },
    {
      "anonymous": false,
      "inputs": [
        {
          "indexed": false,
          "internalType": "uint256",
          "name": "claimId",
          "type": "uint256"
        },
        {
          "indexed": false,
          "internalType": "enum ClearedContract.ClaimStatus",
          "name": "status",
          "type": "uint8"
        },
        {
          "indexed": false,
          "internalType": "string",
          "name": "reason",
          "type": "string"
        }
      ],
      "name": "ClaimProcessed",
      "type": "event"
    },
    {
      "anonymous": false,
      "inputs": [
        {
          "indexed": false,
          "internalType": "uint256",
          "name": "claimId",
          "type": "uint256"
        },
        {
          "indexed": false,
          "internalType": "address",
          "name": "employee",
          "type": "address"
        },
        {
          "indexed": false,
          "internalType": "uint256",
          "name": "amount",
          "type": "uint256"
        },
        {
          "indexed": false,
          "internalType": "string",
          "name": "category",
          "type": "string"
        }
      ],
      "name": "ClaimSubmitted",
      "type": "event"
    },
    {
      "anonymous": false,
      "inputs": [
        {
          "indexed": false,
          "internalType": "address",
          "name": "owner",
          "type": "address"
        },
        {
          "indexed": false,
          "internalType": "uint256",
          "name": "amount",
          "type": "uint256"
        }
      ],
      "name": "FundsWithdrawn",
      "type": "event"
    },
    {
      "anonymous": false,
      "inputs": [
        {
          "indexed": false,
          "internalType": "address",
          "name": "owner",
          "type": "address"
        },
        {
          "indexed": false,
          "internalType": "string",
          "name": "policyName",
          "type": "string"
        },
        {
          "indexed": false,
          "internalType": "uint256",
          "name": "maxAmount",
          "type": "uint256"
        },
        {
          "indexed": false,
          "internalType": "string",
          "name": "category",
          "type": "string"
        }
      ],
      "name": "PolicyCreated",
      "type": "event"
    },
    {
      "anonymous": false,
      "inputs": [
        {
          "indexed": false,
          "internalType": "address",
          "name": "funder",
          "type": "address"
        },
        {
          "indexed": false,
          "internalType": "uint256",
          "name": "amount",
          "type": "uint256"
        }
      ],
      "name": "PolicyFunded",
      "type": "event"
    },
    {
      "anonymous": false,
      "inputs": [
        {
          "indexed": false,
          "internalType": "uint256",
          "name": "claimId",
          "type": "uint256"
        },
        {
          "indexed": false,
          "internalType": "address",
          "name": "employee",
          "type": "address"
        },
        {
          "indexed": false,
          "internalType": "uint256",
          "name": "amount",
          "type": "uint256"
        }
      ],
      "name": "ReimbursementPaid",
      "type": "event"
    },
    {
      "inputs": [],
      "name": "claimCount",
      "outputs": [
        {
          "internalType": "uint256",
          "name": "",
          "type": "uint256"
        }
      ],
      "stateMutability": "view",
      "type": "function"
    },
    {
      "inputs": [
        {
          "internalType": "uint256",
          "name": "",
          "type": "uint256"
        }
      ],
      "name": "claims",
      "outputs": [
        {
          "internalType": "address",
          "name": "employee",
          "type": "address"
        },
        {
          "internalType": "bytes32",
          "name": "receiptHash",
          "type": "bytes32"
        },
        {
          "internalType": "uint256",
          "name": "amount",
          "type": "uint256"
        },
        {
          "internalType": "string",
          "name": "category",
          "type": "string"
        },
        {
          "internalType": "string",
          "name": "description",
          "type": "string"
        },
        {
          "internalType": "uint256",
          "name": "timestamp",
          "type": "uint256"
        },
        {
          "internalType": "enum ClearedContract.ClaimStatus",
          "name": "status",
          "type": "uint8"
        },
        {
          "internalType": "string",
          "name": "rejectionReason",
          "type": "string"
        },
        {
          "internalType": "string",
          "name": "receiptCid",
          "type": "string"
        }
      ],
      "stateMutability": "view",
      "type": "function"
    },
    {
      "inputs": [],
      "name": "createdAt",
      "outputs": [
        {
          "internalType": "uint256",
          "name": "",
          "type": "uint256"
        }
      ],
      "stateMutability": "view",
      "type": "function"
    },
    {
      "inputs": [
        {
          "internalType": "address",
          "name": "",
          "type": "address"
        },
        {
          "internalType": "uint256",
          "name": "",
          "type": "uint256"
        }
      ],
      "name": "employeeClaims",
      "outputs": [
        {
          "internalType": "uint256",
          "name": "",
          "type": "uint256"
        }
      ],
      "stateMutability": "view",
      "type": "function"
    },
    {
      "inputs": [
        {
          "internalType": "uint256",
          "name": "_amount",
          "type": "uint256"
        }
      ],
      "name": "fundContract",
      "outputs": [],
      "stateMutability": "nonpayable",
      "type": "function"
    },
    {
      "inputs": [
        {
          "internalType": "uint256",
          "name": "_claimId",
          "type": "uint256"
        }
      ],
      "name": "getClaim",
      "outputs": [
        {
          "components": [
            {
              "internalType": "address",
              "name": "employee",
              "type": "address"
            },
            {
              "internalType": "bytes32",
              "name": "receiptHash",
              "type": "bytes32"
            },
            {
              "internalType": "uint256",
              "name": "amount",
              "type": "uint256"
            },
            {
              "internalType": "string",
              "name": "category",
              "type": "string"
            },
            {
              "internalType": "string",
              "name": "description",
              "type": "string"
            },
            {
              "internalType": "uint256",
              "name": "timestamp",
              "type": "uint256"
            },
            {
              "internalType": "enum ClearedContract.ClaimStatus",
              "name": "status",
              "type": "uint8"
            },
            {
              "internalType": "string",
              "name": "rejectionReason",
              "type": "string"
            },
            {
              "internalType": "string",
              "name": "receiptCid",
              "type": "string"
            }
          ],
          "internalType": "struct ClearedContract.ReimbursementClaim",
          "name": "",
          "type": "tuple"
        }
      ],
      "stateMutability": "view",
      "type": "function"
    },
    {
      "inputs": [],
      "name": "getContractBalance",
      "outputs": [
        {
          "internalType": "uint256",
          "name": "",
          "type": "uint256"
        }
      ],
      "stateMutability": "view",
      "type": "function"
    },
    {
      "inputs": [
        {
          "internalType": "address",
          "name": "_employee",
          "type": "address"
        }
      ],
      "name": "getEmployeeClaims",
      "outputs": [
        {
          "internalType": "uint256[]",
          "name": "",
          "type": "uint256[]"
        }
      ],
      "stateMutability": "view",
      "type": "function"
    },
    {
      "inputs": [],
      "name": "getOwner",
      "outputs": [
        {
          "internalType": "address",
          "name": "",
          "type": "address"
        }
      ],
      "stateMutability": "view",
      "type": "function"
    },
    {
      "inputs": [],
      "name": "getPolicyMetadata",
      "outputs": [
        {
          "internalType": "string",
          "name": "",
          "type": "string"
        },
        {
          "internalType": "string",
          "name": "",
          "type": "string"
        },
        {
          "components": [
            {
              "internalType": "string",
              "name": "businessType",
              "type": "string"
            },
            {
              "internalType": "string",
              "name": "location",
              "type": "string"
            },
            {
              "internalType": "string",
              "name": "employeeCount",
              "type": "string"
            },
            {
              "internalType": "uint256",
              "name": "maxAmount",
              "type": "uint256"
            },
            {
              "internalType": "string",
              "name": "category",
              "type": "string"
            },
            {
              "internalType": "bool",
              "name": "isActive",
              "type": "bool"
            }
          ],
          "internalType": "struct ClearedContract.PolicyParams",
          "name": "",
          "type": "tuple"
        },
        {
          "internalType": "uint256",
          "name": "",
          "type": "uint256"
        },
        {
          "internalType": "uint256",
          "name": "",
          "type": "uint256"
        },
        {
          "internalType": "address",
          "name": "",
          "type": "address"
        }
      ],
      "stateMutability": "view",
      "type": "function"
    },
    {
      "inputs": [],
      "name": "getUSDFCAddress",
      "outputs": [
        {
          "internalType": "address",
          "name": "",
          "type": "address"
        }
      ],
      "stateMutability": "view",
      "type": "function"
    },
    {
      "inputs": [],
      "name": "hasPasscode",
      "outputs": [
        {
          "internalType": "bool",
          "name": "",
          "type": "bool"
        }
      ],
      "stateMutability": "view",
      "type": "function"
    },
    {
      "inputs": [],
      "name": "policyDescription",
      "outputs": [
        {
          "internalType": "string",
          "name": "",
          "type": "string"
        }
      ],
      "stateMutability": "view",
      "type": "function"
    },
    {
      "inputs": [],
      "name": "policyName",
      "outputs": [
        {
          "internalType": "string",
          "name": "",
          "type": "string"
        }
      ],
      "stateMutability": "view",
      "type": "function"
    },
    {
      "inputs": [],
      "name": "policyParams",
      "outputs": [
        {
          "internalType": "string",
          "name": "businessType",
          "type": "string"
        },
        {
          "internalType": "string",
          "name": "location",
          "type": "string"
        },
        {
          "internalType": "string",
          "name": "employeeCount",
          "type": "string"
        },
        {
          "internalType": "uint256",
          "name": "maxAmount",
          "type": "uint256"
        },
        {
          "internalType": "string",
          "name": "category",
          "type": "string"
        },
        {
          "internalType": "bool",
          "name": "isActive",
          "type": "bool"
        }
      ],
      "stateMutability": "view",
      "type": "function"
    },
    {
      "inputs": [
        {
          "internalType": "uint256",
          "name": "_claimId",
          "type": "uint256"
        },
        {
          "internalType": "enum ClearedContract.ClaimStatus",
          "name": "_status",
          "type": "uint8"
        },
        {
          "internalType": "string",
          "name": "_reason",
          "type": "string"
        }
      ],
      "name": "processClaim",
      "outputs": [],
      "stateMutability": "nonpayable",
      "type": "function"
    },
    {
      "inputs": [
        {
          "internalType": "uint256",
          "name": "_amount",
          "type": "uint256"
        },
        {
          "internalType": "string",
          "name": "_description",
          "type": "string"
        },
        {
          "internalType": "bytes32",
          "name": "_receiptHash",
          "type": "bytes32"
        },
        {
          "internalType": "string",
          "name": "_receiptCid",
          "type": "string"
        },
        {
          "internalType": "string",
          "name": "_passcode",
          "type": "string"
        }
      ],
      "name": "submitClaim",
      "outputs": [],
      "stateMutability": "nonpayable",
      "type": "function"
    },
    {
      "inputs": [],
      "name": "totalFunded",
      "outputs": [
        {
          "internalType": "uint256",
          "name": "",
          "type": "uint256"
        }
      ],
      "stateMutability": "view",
      "type": "function"
    },
    {
      "inputs": [],
      "name": "totalReimbursed",
      "outputs": [
        {
          "internalType": "uint256",
          "name": "",
          "type": "uint256"
        }
      ],
      "stateMutability": "view",
      "type": "function"
    },
    {
      "inputs": [
        {
          "internalType": "bool",
          "name": "_isActive",
          "type": "bool"
        }
      ],
      "name": "updatePolicyStatus",
      "outputs": [],
      "stateMutability": "nonpayable",
      "type": "function"
    },
    {
      "inputs": [],
      "name": "usdfc",
      "outputs": [
        {
          "internalType": "contract IERC20",
          "name": "",
          "type": "address"
        }
      ],
      "stateMutability": "view",
      "type": "function"
    },
    {
      "inputs": [
        {
          "internalType": "bytes32",
          "name": "_receiptHash",
          "type": "bytes32"
        }
      ],
      "name": "validateReceipt",
      "outputs": [
        {
          "internalType": "bool",
          "name": "exists",
          "type": "bool"
        },
        {
          "internalType": "uint256",
          "name": "claimId",
          "type": "uint256"
        }
      ],
      "stateMutability": "view",
      "type": "function"
    },
    {
      "inputs": [
        {
          "internalType": "uint256",
          "name": "_amount",
          "type": "uint256"
        }
      ],
      "name": "withdrawFunds",
      "outputs": [],
      "stateMutability": "nonpayable",
      "type": "function"
    }
  ],
  "bytecode": {
    "object": "0x60a060405242600a556000600b556000600e556000600f553480156200002457600080fd5b5060405162002d1238038062002d128339810160408190526200004791620002fb565b6001600160a01b038216620000ad5760405162461bcd60e51b815260206004820152602260248201527f555344464320746f6b656e20616464726573732063616e6e6f74206265207a65604482015261726f60f01b606482015260840160405180910390fd5b60018054610100600160a81b03191633610100021790556001600160a01b0382166080526002620000df8a82620004bb565b506003620000ee8982620004bb565b508015620001085760008190556001805460ff1916811790555b6040805160c081018252888152602081018890529081018690526060810185905260808101849052600160a0820152600480620001468a82620004bb565b50602082015160018201906200015d9082620004bb565b5060408201516002820190620001749082620004bb565b506060820151600382015560808201516004820190620001959082620004bb565b5060a091909101516005909101805460ff19169115159190911790556001546040517f54b8a3315640a4494379c0418c5aa2b37a5f4030871fbb6a64cdaaec43e4675291620001fa916101009091046001600160a01b0316908c9088908890620005b5565b60405180910390a150505050505050505062000600565b634e487b7160e01b600052604160045260246000fd5b60005b83811015620002445781810151838201526020016200022a565b50506000910152565b600082601f8301126200025f57600080fd5b81516001600160401b03808211156200027c576200027c62000211565b604051601f8301601f19908116603f01168101908282118183101715620002a757620002a762000211565b81604052838152866020858801011115620002c157600080fd5b620002d484602083016020890162000227565b9695505050505050565b80516001600160a01b0381168114620002f657600080fd5b919050565b60008060008060008060008060006101208a8c0312156200031b57600080fd5b89516001600160401b03808211156200033357600080fd5b620003418d838e016200024d565b9a5060208c01519150808211156200035857600080fd5b620003668d838e016200024d565b995060408c01519150808211156200037d57600080fd5b6200038b8d838e016200024d565b985060608c0151915080821115620003a257600080fd5b620003b08d838e016200024d565b975060808c0151915080821115620003c757600080fd5b620003d58d838e016200024d565b965060a08c0151955060c08c0151915080821115620003f357600080fd5b50620004028c828d016200024d565b9350506200041360e08b01620002de565b91506101008a015190509295985092959850929598565b600181811c908216806200043f57607f821691505b6020821081036200046057634e487b7160e01b600052602260045260246000fd5b50919050565b601f821115620004b6576000816000526020600020601f850160051c81016020861015620004915750805b601f850160051c820191505b81811015620004b2578281556001016200049d565b5050505b505050565b81516001600160401b03811115620004d757620004d762000211565b620004ef81620004e884546200042a565b8462000466565b602080601f8311600181146200052757600084156200050e5750858301515b600019600386901b1c1916600185901b178555620004b2565b600085815260208120601f198616915b82811015620005585788860151825594840194600190910190840162000537565b5085821015620005775787850151600019600388901b60f8161c191681555b5050505050600190811b01905550565b60008151808452620005a181602086016020860162000227565b601f01601f19169290920160200192915050565b6001600160a01b0385168152608060208201819052600090620005db9083018662000587565b8460408401528281036060840152620005f5818562000587565b979650505050505050565b6080516126c56200064d600039600081816101570152818161021c015281816103f0015281816104d4015281816106f901528181610dc40152818161147a015261158301526126c56000f3fe608060405234801561001057600080fd5b506004361061014d5760003560e01c80636f9fb98a116100c3578063a888c2cd1161007c578063a888c2cd1461030d578063ad044f4914610335578063b197be801461033e578063ca653d2314610351578063cf09e0d014610364578063fd43a9ec1461036d57600080fd5b80636f9fb98a1461029957806377bfbdc1146102a157806378ce0102146102bb578063893d20e8146102db5780638da4d3c9146102f157806392a22a95146102fa57600080fd5b80633519a2f8116101155780633519a2f814610207578063498ac0581461021a5780634e8d92cb146102405780635aef24471461025a57806364910cc81461027a57806365de97a61461029157600080fd5b80631006e4cb14610152578063101162c314610196578063155dd5ee146101b35780632ac9f6ef146101c85780632cc43acb146101dd575b600080fd5b6101797f000000000000000000000000000000000000000000000000000000000000000081565b6040516001600160a01b0390911681526020015b60405180910390f35b6001546101a39060ff1681565b604051901515815260200161018d565b6101c66101c1366004611d57565b610380565b005b6101d06105a6565b60405161018d9190611dc0565b6101f06101eb366004611d57565b610634565b60408051921515835260208301919091520161018d565b6101c6610215366004611d57565b610685565b7f0000000000000000000000000000000000000000000000000000000000000000610179565b6102486107e1565b60405161018d96959493929190611dda565b61026d610268366004611d57565b610a2c565b60405161018d9190611e7b565b610283600f5481565b60405190815260200161018d565b6101d0610d9f565b610283610dac565b6102a9610e3c565b60405161018d96959493929190611f48565b6102ce6102c936600461203d565b61123b565b60405161018d9190612058565b60015461010090046001600160a01b0316610179565b610283600b5481565b6101c661030836600461213f565b6112a7565b61032061031b366004611d57565b6116bc565b60405161018d9998979695949392919061219c565b610283600e5481565b6101c661034c36600461222a565b611937565b61028361035f3660046122c6565b611ce4565b610283600a5481565b6101c661037b366004612301565b611d15565b60015461010090046001600160a01b031633146103b85760405162461bcd60e51b81526004016103af9061231e565b60405180910390fd5b600081116103d85760405162461bcd60e51b81526004016103af90612367565b6040516370a0823160e01b81523060048201526000907f00000000000000000000000000000000000000000000000000000000000000006001600160a01b0316906370a0823190602401602060405180830381865afa15801561043f573d6000803e3d6000fd5b505050506040513d601f19601f82011682018060405250810190610463919061239e565b9050818110156104b55760405162461bcd60e51b815260206004820152601d60248201527f496e73756666696369656e7420636f6e74726163742062616c616e636500000060448201526064016103af565b60405163a9059cbb60e01b8152336004820152602481018390526000907f00000000000000000000000000000000000000000000000000000000000000006001600160a01b03169063a9059cbb906044016020604051808303816000875af1158015610525573d6000803e3d6000fd5b505050506040513d601f19601f8201168201806040525081019061054991906123b7565b9050806105685760405162461bcd60e51b81526004016103af906123d4565b60408051338152602081018590527feaff4b37086828766ad3268786972c0cd24259d4c87a80f9d3963a3c3d999b0d910160405180910390a1505050565b600380546105b390612403565b80601f01602080910402602001604051908101604052809291908181526020018280546105df90612403565b801561062c5780601f106106015761010080835404028352916020019161062c565b820191906000526020600020905b81548152906001019060200180831161060f57829003601f168201915b505050505081565b60008060015b600b548111610679576000818152600c602052604090206001015484900361066757600194909350915050565b8061067181612453565b91505061063a565b50600093849350915050565b60015461010090046001600160a01b031633146106b45760405162461bcd60e51b81526004016103af9061231e565b600081116106d45760405162461bcd60e51b81526004016103af90612367565b6040516323b872dd60e01b8152336004820152306024820152604481018290526000907f00000000000000000000000000000000000000000000000000000000000000006001600160a01b0316906323b872dd906064016020604051808303816000875af115801561074a573d6000803e3d6000fd5b505050506040513d601f19601f8201168201806040525081019061076e91906123b7565b90508061078d5760405162461bcd60e51b81526004016103af906123d4565b81600e600082825461079f919061246c565b909155505060408051338152602081018490527fd356f7331c13531adfd8e4a94db0798ee057f63b5f809e28e98d373e611b8cf0910160405180910390a15050565b6004805481906107f090612403565b80601f016020809104026020016040519081016040528092919081815260200182805461081c90612403565b80156108695780601f1061083e57610100808354040283529160200191610869565b820191906000526020600020905b81548152906001019060200180831161084c57829003601f168201915b50505050509080600101805461087e90612403565b80601f01602080910402602001604051908101604052809291908181526020018280546108aa90612403565b80156108f75780601f106108cc576101008083540402835291602001916108f7565b820191906000526020600020905b8154815290600101906020018083116108da57829003601f168201915b50505050509080600201805461090c90612403565b80601f016020809104026020016040519081016040528092919081815260200182805461093890612403565b80156109855780601f1061095a57610100808354040283529160200191610985565b820191906000526020600020905b81548152906001019060200180831161096857829003601f168201915b5050505050908060030154908060040180546109a090612403565b80601f01602080910402602001604051908101604052809291908181526020018280546109cc90612403565b8015610a195780601f106109ee57610100808354040283529160200191610a19565b820191906000526020600020905b8154815290600101906020018083116109fc57829003601f168201915b5050506005909301549192505060ff1686565b610a7a60408051610120810182526000808252602082018190529181018290526060808201819052608082015260a081018290529060c0820190815260200160608152602001606081525090565b600082118015610a8c5750600b548211155b610acb5760405162461bcd60e51b815260206004820152601060248201526f125b9d985b1a590818db185a5b48125160821b60448201526064016103af565b6000828152600c602090815260409182902082516101208101845281546001600160a01b03168152600182015492810192909252600281015492820192909252600382018054919291606084019190610b2390612403565b80601f0160208091040260200160405190810160405280929190818152602001828054610b4f90612403565b8015610b9c5780601f10610b7157610100808354040283529160200191610b9c565b820191906000526020600020905b815481529060010190602001808311610b7f57829003601f168201915b50505050508152602001600482018054610bb590612403565b80601f0160208091040260200160405190810160405280929190818152602001828054610be190612403565b8015610c2e5780601f10610c0357610100808354040283529160200191610c2e565b820191906000526020600020905b815481529060010190602001808311610c1157829003601f168201915b505050918352505060058201546020820152600682015460409091019060ff166002811115610c5f57610c5f611e43565b6002811115610c7057610c70611e43565b8152602001600782018054610c8490612403565b80601f0160208091040260200160405190810160405280929190818152602001828054610cb090612403565b8015610cfd5780601f10610cd257610100808354040283529160200191610cfd565b820191906000526020600020905b815481529060010190602001808311610ce057829003601f168201915b50505050508152602001600882018054610d1690612403565b80601f0160208091040260200160405190810160405280929190818152602001828054610d4290612403565b8015610d8f5780601f10610d6457610100808354040283529160200191610d8f565b820191906000526020600020905b815481529060010190602001808311610d7257829003601f168201915b5050505050815250509050919050565b600280546105b390612403565b6040516370a0823160e01b81523060048201526000907f00000000000000000000000000000000000000000000000000000000000000006001600160a01b0316906370a0823190602401602060405180830381865afa158015610e13573d6000803e3d6000fd5b505050506040513d601f19601f82011682018060405250810190610e37919061239e565b905090565b606080610e7a6040518060c0016040528060608152602001606081526020016060815260200160008152602001606081526020016000151581525090565b6000806000600260036004600b54600a5460018054906101000a90046001600160a01b0316858054610eab90612403565b80601f0160208091040260200160405190810160405280929190818152602001828054610ed790612403565b8015610f245780601f10610ef957610100808354040283529160200191610f24565b820191906000526020600020905b815481529060010190602001808311610f0757829003601f168201915b50505050509550848054610f3790612403565b80601f0160208091040260200160405190810160405280929190818152602001828054610f6390612403565b8015610fb05780601f10610f8557610100808354040283529160200191610fb0565b820191906000526020600020905b815481529060010190602001808311610f9357829003601f168201915b50505050509450836040518060c0016040529081600082018054610fd390612403565b80601f0160208091040260200160405190810160405280929190818152602001828054610fff90612403565b801561104c5780601f106110215761010080835404028352916020019161104c565b820191906000526020600020905b81548152906001019060200180831161102f57829003601f168201915b5050505050815260200160018201805461106590612403565b80601f016020809104026020016040519081016040528092919081815260200182805461109190612403565b80156110de5780601f106110b3576101008083540402835291602001916110de565b820191906000526020600020905b8154815290600101906020018083116110c157829003601f168201915b505050505081526020016002820180546110f790612403565b80601f016020809104026020016040519081016040528092919081815260200182805461112390612403565b80156111705780601f1061114557610100808354040283529160200191611170565b820191906000526020600020905b81548152906001019060200180831161115357829003601f168201915b505050505081526020016003820154815260200160048201805461119390612403565b80601f01602080910402602001604051908101604052809291908181526020018280546111bf90612403565b801561120c5780601f106111e15761010080835404028352916020019161120c565b820191906000526020600020905b8154815290600101906020018083116111ef57829003601f168201915b50505091835250506005919091015460ff161515602090910152959c949b509499509097509550919350915050565b6001600160a01b0381166000908152600d602090815260409182902080548351818402810184019094528084526060939283018282801561129b57602002820191906000526020600020905b815481526020019060010190808311611287575b50505050509050919050565b60015461010090046001600160a01b031633146112d65760405162461bcd60e51b81526004016103af9061231e565b6000831180156112e85750600b548311155b6113275760405162461bcd60e51b815260206004820152601060248201526f125b9d985b1a590818db185a5b48125160821b60448201526064016103af565b600082600281111561133b5761133b611e43565b036113815760405162461bcd60e51b8152602060048201526016602482015275135d5cdd08185c1c1c9bdd99481bdc881c995a9958dd60521b60448201526064016103af565b6000838152600c6020526040812090600682015460ff1660028111156113a9576113a9611e43565b146113f65760405162461bcd60e51b815260206004820152601760248201527f436c61696d20616c72656164792070726f63657373656400000000000000000060448201526064016103af565b60068101805484919060ff1916600183600281111561141757611417611e43565b0217905550600283600281111561143057611430611e43565b03611449576007810161144383826124d6565b5061167b565b600183600281111561145d5761145d611e43565b0361167b576040516370a0823160e01b81523060048201526000907f00000000000000000000000000000000000000000000000000000000000000006001600160a01b0316906370a0823190602401602060405180830381865afa1580156114c9573d6000803e3d6000fd5b505050506040513d601f19601f820116820180604052508101906114ed919061239e565b905081600201548110156115525760405162461bcd60e51b815260206004820152602660248201527f496e73756666696369656e742055534446432062616c616e636520696e20636f6044820152651b9d1c9858dd60d21b60648201526084016103af565b8154600283015460405163a9059cbb60e01b81526001600160a01b03928316600482015260248101919091526000917f0000000000000000000000000000000000000000000000000000000000000000169063a9059cbb906044016020604051808303816000875af11580156115cc573d6000803e3d6000fd5b505050506040513d601f19601f820116820180604052508101906115f091906123b7565b90508061160f5760405162461bcd60e51b81526004016103af906123d4565b8260020154600f6000828254611625919061246c565b909155505082546002840154604080518981526001600160a01b0390931660208401528201527fcc2d362b957d04e750f532cd953c674a15910197baafb95c2d9c348bd7174de49060600160405180910390a150505b7f90cf60eeb9a1734a599dde8e10e8c2aaefed4158e13962cd4d8e6998dc14c0e48484846040516116ae93929190612596565b60405180910390a150505050565b600c6020526000908152604090208054600182015460028301546003840180546001600160a01b039094169492939192916116f690612403565b80601f016020809104026020016040519081016040528092919081815260200182805461172290612403565b801561176f5780601f106117445761010080835404028352916020019161176f565b820191906000526020600020905b81548152906001019060200180831161175257829003601f168201915b50505050509080600401805461178490612403565b80601f01602080910402602001604051908101604052809291908181526020018280546117b090612403565b80156117fd5780601f106117d2576101008083540402835291602001916117fd565b820191906000526020600020905b8154815290600101906020018083116117e057829003601f168201915b50505050600583015460068401546007850180549495929460ff90921693509061182690612403565b80601f016020809104026020016040519081016040528092919081815260200182805461185290612403565b801561189f5780601f106118745761010080835404028352916020019161189f565b820191906000526020600020905b81548152906001019060200180831161188257829003601f168201915b5050505050908060080180546118b490612403565b80601f01602080910402602001604051908101604052809291908181526020018280546118e090612403565b801561192d5780601f106119025761010080835404028352916020019161192d565b820191906000526020600020905b81548152906001019060200180831161191057829003601f168201915b5050505050905089565b60095460ff166119805760405162461bcd60e51b8152602060048201526014602482015273506f6c696379206973206e6f742061637469766560601b60448201526064016103af565b600154819060ff16156119f757600054816040516020016119a191906125c5565b60405160208183030381529060405280519060200120146119f75760405162461bcd60e51b815260206004820152601060248201526f496e76616c69642070617373636f646560801b60448201526064016103af565b60008611611a175760405162461bcd60e51b81526004016103af90612367565b600754861115611a695760405162461bcd60e51b815260206004820152601d60248201527f416d6f756e74206578636565647320706f6c696379206d6178696d756d00000060448201526064016103af565b83611aae5760405162461bcd60e51b8152602060048201526015602482015274149958d95a5c1d081a185cda081c995c5d5a5c9959605a1b60448201526064016103af565b600b8054906000611abe83612453565b91905055506000604051806101200160405280336001600160a01b03168152602001868152602001888152602001600480018054611afb90612403565b80601f0160208091040260200160405190810160405280929190818152602001828054611b2790612403565b8015611b745780601f10611b4957610100808354040283529160200191611b74565b820191906000526020600020905b815481529060010190602001808311611b5757829003601f168201915b505050918352505060208101889052426040820152606001600081526040805160208082018352600080835281850192909252928201889052600b548152600c8352819020835181546001600160a01b0319166001600160a01b039091161781559183015160018301558201516002820155606082015191925082916003820190611bff90826124d6565b5060808201516004820190611c1490826124d6565b5060a0820151600582015560c082015160068201805460ff19166001836002811115611c4257611c42611e43565b021790555060e08201516007820190611c5b90826124d6565b506101008201516008820190611c7190826124d6565b5050336000818152600d60209081526040808320600b80548254600181018455928652939094200191909155905490517f95081ad7e72ba2e9a9457b1b8f0b632d020ea774fd5da576c1202d59904182949350611cd392908b906008906125e1565b60405180910390a150505050505050565b600d6020528160005260406000208181548110611d0057600080fd5b90600052602060002001600091509150505481565b60015461010090046001600160a01b03163314611d445760405162461bcd60e51b81526004016103af9061231e565b6009805460ff1916911515919091179055565b600060208284031215611d6957600080fd5b5035919050565b60005b83811015611d8b578181015183820152602001611d73565b50506000910152565b60008151808452611dac816020860160208601611d70565b601f01601f19169290920160200192915050565b602081526000611dd36020830184611d94565b9392505050565b60c081526000611ded60c0830189611d94565b8281036020840152611dff8189611d94565b90508281036040840152611e138188611d94565b90508560608401528281036080840152611e2d8186611d94565b91505082151560a0830152979650505050505050565b634e487b7160e01b600052602160045260246000fd5b60038110611e7757634e487b7160e01b600052602160045260246000fd5b9052565b60208152611e956020820183516001600160a01b03169052565b602082015160408201526040820151606082015260006060830151610120806080850152611ec7610140850183611d94565b91506080850151601f19808685030160a0870152611ee58483611d94565b935060a087015160c087015260c08701519150611f0560e0870183611e59565b60e08701519150610100818786030181880152611f228584611d94565b908801518782039092018488015293509050611f3e8382611d94565b9695505050505050565b60c081526000611f5b60c0830189611d94565b8281036020840152611f6d8189611d94565b90508281036040840152865160c08252611f8a60c0830182611d94565b905060208801518282036020840152611fa38282611d94565b91505060408801518282036040840152611fbd8282611d94565b9150506060880151606083015260808801518282036080840152611fe18282611d94565b91505060a0880151151560a0830152809250505084606083015283608083015261201660a08301846001600160a01b03169052565b979650505050505050565b80356001600160a01b038116811461203857600080fd5b919050565b60006020828403121561204f57600080fd5b611dd382612021565b6020808252825182820181905260009190848201906040850190845b8181101561209057835183529284019291840191600101612074565b50909695505050505050565b634e487b7160e01b600052604160045260246000fd5b600082601f8301126120c357600080fd5b813567ffffffffffffffff808211156120de576120de61209c565b604051601f8301601f19908116603f011681019082821181831017156121065761210661209c565b8160405283815286602085880101111561211f57600080fd5b836020870160208301376000602085830101528094505050505092915050565b60008060006060848603121561215457600080fd5b8335925060208401356003811061216a57600080fd5b9150604084013567ffffffffffffffff81111561218657600080fd5b612192868287016120b2565b9150509250925092565b600061012060018060a01b038c1683528a60208401528960408401528060608401526121ca8184018a611d94565b905082810360808401526121de8189611d94565b90508660a08401526121f360c0840187611e59565b82810360e08401526122058186611d94565b905082810361010084015261221a8185611d94565b9c9b505050505050505050505050565b600080600080600060a0868803121561224257600080fd5b85359450602086013567ffffffffffffffff8082111561226157600080fd5b61226d89838a016120b2565b955060408801359450606088013591508082111561228a57600080fd5b61229689838a016120b2565b935060808801359150808211156122ac57600080fd5b506122b9888289016120b2565b9150509295509295909350565b600080604083850312156122d957600080fd5b6122e283612021565b946020939093013593505050565b80151581146122fe57600080fd5b50565b60006020828403121561231357600080fd5b8135611dd3816122f0565b60208082526029908201527f4f6e6c7920706f6c696379206f776e65722063616e20706572666f726d20746860408201526834b99030b1ba34b7b760b91b606082015260800190565b6020808252601d908201527f416d6f756e74206d7573742062652067726561746572207468616e2030000000604082015260600190565b6000602082840312156123b057600080fd5b5051919050565b6000602082840312156123c957600080fd5b8151611dd3816122f0565b6020808252601590820152741554d11190c81d1c985b9cd9995c8819985a5b1959605a1b604082015260600190565b600181811c9082168061241757607f821691505b60208210810361243757634e487b7160e01b600052602260045260246000fd5b50919050565b634e487b7160e01b600052601160045260246000fd5b6000600182016124655761246561243d565b5060010190565b8082018082111561247f5761247f61243d565b92915050565b601f8211156124d1576000816000526020600020601f850160051c810160208610156124ae5750805b601f850160051c820191505b818110156124cd578281556001016124ba565b5050505b505050565b815167ffffffffffffffff8111156124f0576124f061209c565b612504816124fe8454612403565b84612485565b602080601f83116001811461253957600084156125215750858301515b600019600386901b1c1916600185901b1785556124cd565b600085815260208120601f198616915b8281101561256857888601518255948401946001909101908401612549565b50858210156125865787850151600019600388901b60f8161c191681555b5050505050600190811b01905550565b8381526125a66020820184611e59565b6060604082015260006125bc6060830184611d94565b95945050505050565b600082516125d7818460208701611d70565b9190910192915050565b8481526000602060018060a01b0386166020840152846040840152608060608401526000845461261081612403565b80608087015260a0600180841660008114612632576001811461264e5761267e565b60ff19851660a08a015260a084151560051b8a0101955061267e565b89600052602060002060005b858110156126755781548b820186015290830190880161265a565b8a0160a0019650505b50939b9a505050505050505050505056fea2646970667358221220fdf5e09f6970da78d9232e01d8589e9ced80f110b3882a49ef0205faf19cea3a64736f6c63430008160033",
    "linkReferences": {}
  },
  "methodIdentifiers": {
    "claimCount()": "8da4d3c9",
    "claims(uint256)": "a888c2cd",
    "createdAt()": "cf09e0d0",
    "employeeClaims(address,uint256)": "ca653d23",
    "fundContract(uint256)": "3519a2f8",
    "getClaim(uint256)": "5aef2447",
    "getContractBalance()": "6f9fb98a",
    "getEmployeeClaims(address)": "78ce0102",
    "getOwner()": "893d20e8",
    "getPolicyMetadata()": "77bfbdc1",
    "getUSDFCAddress()": "498ac058",
    "hasPasscode()": "101162c3",
    "policyDescription()": "2ac9f6ef",
    "policyName()": "65de97a6",
    "policyParams()": "4e8d92cb",
    "processClaim(uint256,uint8,string)": "92a22a95",
    "submitClaim(uint256,string,bytes32,string,string)": "b197be80",
    "totalFunded()": "ad044f49",
    "totalReimbursed()": "64910cc8",
    "updatePolicyStatus(bool)": "fd43a9ec",
    "usdfc()": "1006e4cb",
    "validateReceipt(bytes32)": "2cc43acb",
    "withdrawFunds(uint256)": "155dd5ee"
  },
  "id": 0
}